:100000000C942A000C9447000C9447000C94470071
:100010000C9447000C9447000C9447000C94470044
:100020000C9447000C9447000C94B9080C94F10808
:100030000C9447000C9447000C9447000C94470024
:100040000C9447000C9447000C9447000C94470014
:100050000C94470011241FBECFE5D8E0DEBFCDBF12
:1000600010E0A0E6B0E0E0E5F9E102C005900D92F5
:10007000A839B107D9F710E0A8E9B0E001C01D9296
:10008000AE3DB107E1F70E9432090C94A60C0C9426
:100090000000DF93CF9300D000D0CDB7DEB781E072
:1000A0008A8351C08981282F30E0C901880F991FA8
:1000B000820F931FFC01EF59FF4F40818981282F48
:1000C00030E0C901880F991F820F931FFC01EE5980
:1000D000FF4F9081842F692F40E00E940D048B8395
:1000E0008981282F30E0C901880F991F820F931F43
:1000F000FC01EF59FF4F50818981282F30E0C90161
:10010000880F991F820F931FFC01EE59FF4F40810A
:100110008981282F30E0C901880F991F820F931F12
:10012000FC01ED59FF4F9081852F642F492F0E94CC
:10013000F9048C838B81882361F48C81882349F4B2
:1001400089818F5F8983909160008981891708F484
:10015000A9CF8B81882321F48C81882309F41A820A
:100160008A810F900F900F900F90CF91DF9108959B
:10017000DF93CF9300D000D0CDB7DEB78A837C83E6
:100180006B8381E089838A81895C8A839091600096
:100190008A81891708F58A81282F30E0C901880FE4
:1001A000991F820F931FFC01EF59FF4F40818A81F5
:1001B000282F30E0C901880F991F820F931FFC017F
:1001C000EE59FF4F90812B813C81842F692FA9012B
:1001D0000E947606898302C082E0898389810F901C
:1001E0000F900F900F90CF91DF910895DF93CF93F1
:1001F00000D00F92CDB7DEB781E08B831A8217C192
:10020000198267C08A81282F30E08981482F50E009
:10021000C901880F991F820F931F880F991F840FA0
:10022000951F880F991FFC01E459FF4F60818A8157
:10023000282F30E08981482F50E0C901880F991F8D
:10024000820F931F880F991F840F951F880F991F86
:10025000FC01E359FF4F9081862F692F41E00E94F6
:100260000D04882381F58A81282F30E08981482F69
:1002700050E0C901880F991F820F931F880F991FA3
:10028000840F951F880F991FFC01E459FF4F60816F
:100290008A81282F30E08981482F50E0C901880FDA
:1002A000991F820F931F880F991F840F951F880F26
:1002B000991FFC01E359FF4F9081862F692F40E081
:1002C0000E94F9048B838B81882349F489818F5F95
:1002D000898390916B008981891708F493CF8B8172
:1002E000882309F04DC08A81282F30E0C901880F8A
:1002F000991F820F931F880F991F880F991FFC0168
:10030000EC58FF4F40818A81282F30E0C901880FC7
:10031000991F820F931F880F991F880F991FFC0147
:10032000EB58FF4F9081842F692F41E00E940D040C
:10033000882331F58A81282F30E0C901880F991F61
:10034000820F931F880F991F880F991FFC01EC588B
:10035000FF4F40818A81282F30E0C901880F991F03
:10036000820F931F880F991F880F991FFC01EB586C
:10037000FF4F9081842F692F41E00E94F9048B8305
:100380008B81882309F04DC08A81282F30E0C90174
:10039000880F991F820F931F880F991F880F991F2D
:1003A000FC01EA58FF4F40818A81282F30E0C901C3
:1003B000880F991F820F931F880F991F880F991F0D
:1003C000FC01E958FF4F9081842F692F41E00E9482
:1003D0000D04882331F58A81282F30E0C901880F68
:1003E000991F820F931F880F991F880F991FFC0177
:1003F000EA58FF4F40818A81282F30E0C901880FD9
:10040000991F820F931F880F991F880F991FFC0156
:10041000E958FF4F9081842F692F41E00E94F90431
:100420008B838B81882349F48A818F5F8A839091A3
:100430006A008A81981708F0E3CE8B810F900F90A5
:100440000F90CF91DF910895DF93CF9300D000D02C
:100450000F92CDB7DEB78C836D8381E08B838C8167
:10046000882F90E09C012B50304080916A00882FAB
:1004700090E0281739070CF055C08D818A3008F0BC
:1004800051C08C818B508C83198245C08D81282F5F
:1004900030E08981882F90E0A90102C055954795E9
:1004A0008A95E2F7CA0181708A838C81282F30E017
:1004B0008981482F50E0C901880F991F820F931F2F
:1004C000880F991F840F951F880F991FFC01E4590D
:1004D000FF4F60818C81282F30E08981482F50E0C8
:1004E000C901880F991F820F931F880F991F840FCE
:1004F000951F880F991FFC01E359FF4F9081862FAC
:10050000692F4A810E94F9048B838B81882361F4CF
:1005100089818F5F898390916B008981891708F4A5
:10052000B5CF02C082E08B838B810F900F900F902C
:100530000F900F90CF91DF910895DF93CF9300D06C
:100540000F92CDB7DEB78A836B8381E089838A817E
:10055000882F90E09C012B50304080916A00882FBA
:1005600090E02817390784F58B81882319F08B8157
:10057000813051F58A818B508A838A81282F30E01F
:10058000C901880F991F820F931F880F991F880F29
:10059000991FFC01EC58FF4F40818A81282F30E0E1
:1005A000C901880F991F820F931F880F991F880F09
:1005B000991FFC01EB58FF4F9081842F692F4B81CD
:1005C0000E94F904898302C082E0898389810F90A7
:1005D0000F900F90CF91DF910895DF93CF9300D0CC
:1005E00000D0CDB7DEB78A837C836B8381E08983BB
:1005F00090916A008A81981798F08A81882F90E0FC
:10060000AC014D5E5F4F8A81282F30E0CA01B901ED
:100610000E945D0CCB01EB81FC818083198202C0BA
:1006200082E0898389810F900F900F900F90CF9176
:10063000DF910895DF93CF9300D000D0CDB7DEB720
:100640008B836C8381E08A838C818D3019F08C815F
:100650008E30E9F58B81882F90E09C012B50304043
:1006600080916A00882F90E02817390784F58B81E4
:100670008B508B8319828C818E3011F481E08983B9
:100680008B81282F30E0C901880F991F820F931F9B
:10069000880F991F880F991FFC01EA58FF4F40816E
:1006A0008B81282F30E0C901880F991F820F931F7B
:1006B000880F991F880F991FFC01E958FF4F9081FF
:1006C000842F692F49810E94F9048A8302C082E045
:1006D0008A838A810F900F900F900F90CF91DF91B6
:1006E0000895DF93CF9300D000D0CDB7DEB781E07F
:1006F0008A83198239C08981882F90E0880F991FD9
:10070000FC01EB57FF4F20818981882F90E0880FF3
:10071000991FFC01EA57FF4F9081822F692F41E01A
:100720000E940D048B838981882F90E0880F991F88
:10073000FC01EB57FF4F20818981882F90E0880FC3
:10074000991FFC01EA57FF4F9081822F692F40E0EB
:100750000E94F9048C838B81882359F48C8188232F
:1007600041F489818F5F8983909184008981891701
:1007700010F28B81882321F48C81882309F41A825A
:100780008A810F900F900F900F90CF91DF91089575
:10079000DF93CF9300D00F92CDB7DEB78A836B8300
:1007A00081E089838A818E518A83909184008A8135
:1007B0008917F8F48B81813019F08B818823C9F473
:1007C0008A81882F90E0880F991FFC01EB57FF4F1B
:1007D00020818A81882F90E0880F991FFC01EA57B9
:1007E000FF4F9081822F692F4B810E94F9048983EA
:1007F00002C082E0898389810F900F900F90CF9182
:10080000DF910895DF93CF930F92CDB7DEB71982B2
:1008100089810F90CF91DF910895DF93CF9300D01E
:1008200000D000D0CDB7DEB78A836B834C8381E0E4
:1008300089838A81843008F0D0C08B81883008F0A9
:10084000CCC08C81823008F0C8C08A81282F30E06B
:100850003E832D836D817E816130710509F441C035
:100860008D819E818230910534F42D813E81211548
:10087000310571F0B0C06D817E816230710509F47F
:1008800059C08D819E818330910509F47CC0A3C03D
:10089000AAE3B0E0EAE3F0E08081482F8B81282FC3
:1008A00030E081E090E002C0880F991F2A95E2F7BE
:1008B000809584238C93AAE3B0E0EAE3F0E08081A2
:1008C000482F8C81282F30E08B81882F90E0B90150
:1008D00002C0660F771F8A95E2F7CB01842B8C93B9
:1008E0007AC0A7E3B0E0E7E3F0E08081482F8B8196
:1008F000282F30E081E090E002C0880F991F2A95F0
:10090000E2F7809584238C93A7E3B0E0E7E3F0E07F
:100910008081482F8C81282F30E08B81882F90E0B8
:10092000B90102C0660F771F8A95E2F7CB01842BCD
:100930008C9351C0A4E3B0E0E4E3F0E08081482F61
:100940008B81282F30E081E090E002C0880F991F52
:100950002A95E2F7809584238C93A4E3B0E0E4E346
:10096000F0E08081482F8C81282F30E08B81882F08
:1009700090E0B90102C0660F771F8A95E2F7CB01BC
:10098000842B8C9328C0A1E3B0E0E1E3F0E0808108
:10099000482F8B81282F30E081E090E002C0880F43
:1009A000991F2A95E2F7809584238C93A1E3B0E008
:1009B000E1E3F0E08081482F8C81282F30E08B81AB
:1009C000882F90E0B90102C0660F771F8A95E2F781
:1009D000CB01842B8C93198202C082E089838981A8
:1009E00026960FB6F894DEBF0FBECDBFCF91DF9134
:1009F0000895DF93CF9300D000D000D0CDB7DEB7FD
:100A00008A836B834C8381E089838A81843008F0F8
:100A1000D3C08B81883008F0CFC08C81823020F029
:100A20008C81823008F0C8C08A81282F30E03E8354
:100A30002D836D817E816130710509F441C08D8106
:100A40009E818230910534F42D813E81211531053E
:100A500071F0B0C06D817E816230710509F459C0BA
:100A60008D819E818330910509F47CC0A3C0ABE3E6
:100A7000B0E0EBE3F0E08081482F8B81282F30E05D
:100A800081E090E002C0880F991F2A95E2F78095D7
:100A900084238C93ABE3B0E0EBE3F0E08081482F5C
:100AA0008C81282F30E08B81882F90E0B90102C023
:100AB000660F771F8A95E2F7CB01842B8C937AC05F
:100AC000A8E3B0E0E8E3F0E08081482F8B81282F95
:100AD00030E081E090E002C0880F991F2A95E2F78C
:100AE000809584238C93A8E3B0E0E8E3F0E0808174
:100AF000482F8C81282F30E08B81882F90E0B9011E
:100B000002C0660F771F8A95E2F7CB01842B8C9386
:100B100051C0A5E3B0E0E5E3F0E08081482F8B8190
:100B2000282F30E081E090E002C0880F991F2A95BD
:100B3000E2F7809584238C93A5E3B0E0E5E3F0E051
:100B40008081482F8C81282F30E08B81882F90E086
:100B5000B90102C0660F771F8A95E2F7CB01842B9B
:100B60008C9328C0A2E3B0E0E2E3F0E08081482F5C
:100B70008B81282F30E081E090E002C0880F991F20
:100B80002A95E2F7809584238C93A2E3B0E0E2E318
:100B9000F0E08081482F8C81282F30E08B81882FD6
:100BA00090E0B90102C0660F771F8A95E2F7CB018A
:100BB000842B8C93198202C082E0898389812696D6
:100BC0000FB6F894DEBF0FBECDBFCF91DF91089571
:100BD000DF93CF9300D000D00F92CDB7DEB78A83DA
:100BE0006B8381E089838A81843008F074C08B81B3
:100BF000883008F070C08A81282F30E03D832C8334
:100C00008C819D818130910549F12C813D8122307B
:100C100031052CF48C819D81009761F05AC02C81A4
:100C20003D812230310571F18C819D8183309105A8
:100C3000E9F14FC0ABE3B0E0EBE3F0E08081482F97
:100C40008B81282F30E081E090E0022E02C0880FD7
:100C5000991F0A94E2F784278C933BC0A8E3B0E085
:100C6000E8E3F0E08081482F8B81282F30E081E09D
:100C700090E0022E02C0880F991F0A94E2F78427A1
:100C80008C9327C0A5E3B0E0E5E3F0E08081482F36
:100C90008B81282F30E081E090E0022E02C0880F87
:100CA000991F0A94E2F784278C9313C0A2E3B0E063
:100CB000E2E3F0E08081482F8B81282F30E081E053
:100CC00090E0022E02C0880F991F0A94E2F7842751
:100CD0008C93198202C082E0898389810F900F90E2
:100CE0000F900F900F90CF91DF910895DF93CF93E6
:100CF000CDB7DEB727970FB6F894DEBF0FBECDBFD6
:100D00008A836B835D834C8381E089838C819D81A1
:100D1000009709F47DC08A81843008F076C08B8109
:100D2000883008F072C08A81282F30E03F832E83FC
:100D30004E815F814130510559F18E819F81823012
:100D4000910534F42E813F812115310569F05BC096
:100D50004E815F814230510579F18E819F818330D0
:100D6000910509F43DC04FC0E9E3F0E08081282FF0
:100D700030E08B81882F90E0A90102C055954795FE
:100D80008A95E2F7CA018170EC81FD8180833BC0C6
:100D9000E6E3F0E08081282F30E08B81882F90E01F
:100DA000A90102C0559547958A95E2F7CA0181705D
:100DB000EC81FD81808327C0E3E3F0E08081282F70
:100DC00030E08B81882F90E0A90102C055954795AE
:100DD0008A95E2F7CA018170EC81FD81808313C09E
:100DE000E0E3F0E08081282F30E08B81882F90E0D5
:100DF000A90102C0559547958A95E2F7CA0181700D
:100E0000EC81FD818083198205C082E0898302C064
:100E100083E08983898127960FB6F894DEBF0FBEE1
:100E2000CDBFCF91DF910895DF93CF93CDB7DEB7DC
:100E3000E3E5F0E08DE08083ECE5F0E08CE9808391
:100E400081E08093980081E080939900A9E5B0E06B
:100E5000E9E5F0E0808182608C93CF91DF91089585
:100E60000F93DF93CF93CDB7DEB728970FB6F894E3
:100E7000DEBF0FBECDBF9A8389837C836B835E8385
:100E80004D832F83088789819A81009709F452C086
:100E90008F81873008F04EC08F81882F90E0880FB7
:100EA000991F880F991F880F991FFC01E556FF4F66
:100EB00089819A81918380838F81882F90E0880F28
:100EC000991F880F991F0196880F991FFC01E556FD
:100ED000FF4F8B819C81918380838F81882F90E04D
:100EE000880F991F0196880F991F880F991FFC0181
:100EF000E556FF4F8D819E81918380838F81882F5E
:100F000090E0880F991F880F991F880F991FFC0187
:100F1000EF55FF4F87E180838F81882F90E0880F06
:100F2000991F880F991F880F991FFC01EE55FF4FDD
:100F30008885808328960FB6F894DEBF0FBECDBF9C
:100F4000CF91DF910F910895EF92FF920F931F932E
:100F5000DF93CF9300D000D00F92CDB7DEB71A82C7
:100F60001B821C821D8278942091D3003091D40082
:100F70004091D5005091D6008A819B81AC81BD8182
:100F800082179307A407B50778F78091D300909153
:100F9000D400A091D500B091D6008A839B83AC8306
:100FA000BD8386E0898381C08981992787FD9095DB
:100FB000880F991F880F991F880F991FFC01E5560C
:100FC000FF4F80819181009709F46CC08981992736
:100FD00087FD9095880F991F880F991F880F991F7B
:100FE000FC01EF55FF4F8081873109F05BC0E09035
:100FF000D300F090D4000091D5001091D6008981E3
:10100000992787FD9095880F991F0196880F991F42
:10101000880F991FFC01E556FF4F808191819C014B
:1010200040E050E0C801B7010E94700CDC01CB0128
:101030009C01AD018981992787FD9095880F991FA3
:10104000880F991F880F991FFC01EE55FF4F808173
:10105000882F90E0A0E0B0E0281739074A075B0727
:1010600009F58981992787FD9095880F991F880F29
:10107000991F880F991FFC01E556FF4F2081318190
:101080008981992787FD9095880F991F880F991F4F
:101090000196880F991FFC01E556FF4F80819181D1
:1010A000F9010995898181508983898188230CF010
:1010B0007BCF5ACFDF93CF930F92CDB7DEB7898323
:1010C00089818730E0F48981882F90E0880F991F0B
:1010D000880F991F880F991FFC01E556FF4F118259
:1010E00010828981882F90E0880F991F880F991F9F
:1010F000880F991FFC01EF55FF4F81E180830F900E
:10110000CF91DF910895DF93CF930F92CDB7DEB7E4
:1011100089838981873070F48981882F90E0880FD6
:10112000991F880F991F880F991FFC01EF55FF4FDA
:1011300088E380830F90CF91DF910895DF93CF9361
:101140000F92CDB7DEB789838981873070F48981AA
:10115000882F90E0880F991F880F991F880F991F7B
:10116000FC01EF55FF4F87E180830F90CF91DF9116
:1011700008951F920F920FB60F9211248F939F9391
:10118000AF93BF93DF93CF93CDB7DEB78091990034
:10119000815080939900809199008823B9F48091BF
:1011A000D3009091D400A091D500B091D6000196C3
:1011B000A11DB11D8093D3009093D400A093D500BE
:1011C000B093D6008091980080939900CF91DF91E1
:1011D000BF91AF919F918F910F900FBE0F901F9075
:1011E00018951F920F920FB60F9211248F939F9311
:1011F000AF93BF93EF93FF93DF93CF93CDB7DEB75A
:101200008091990081508093990080919900882362
:10121000E1F4E2E5F0E080919A0080838091D300D0
:101220009091D400A091D500B091D6000196A11D57
:10123000B11D8093D3009093D400A093D500B093B8
:10124000D6008091980080939900CF91DF91FF9113
:10125000EF91BF91AF919F918F910F900FBE0F9023
:101260001F9018950F93DF93CF93CDB7DEB72997D3
:101270000FB6F894DEBF0FBECDBF8CE08983CE01E0
:1012800002969E838D83E5E9F0E0F887EF83F3E033
:10129000F987EF81F88500808F819885019698877E
:1012A0008F83ED81FE8100828D819E8101969E83D8
:1012B0008D83998591509987E985EE2351F70E9496
:1012C00071030E9449000E94F6000E9414078CE8F6
:1012D0009BE09E012F5F3F4FB90144E050E026E0C4
:1012E00000E00E9430078BEC99E09E012E5F3F4F9B
:1012F000B90144E650E025E000E00E9430078FEDA0
:101300009BE09E012E5F3F4FB90144E650E024E090
:1013100001E00E94300745E05CE0CE0102969C01AE
:101320002F5F3F4FCA01B90144E650E023E002E0DD
:101330000E9430074BE25CE0CE0102969C012E5FDA
:101340003F4FCA01B90144E650E022E003E00E94A9
:10135000300788E69AE060E070E04DE050E021E080
:1013600000E00E9430078AEF9AE060E070E04DE014
:1013700050E020E006E00E9430070E94A40780E0D1
:1013800090E029960FB6F894DEBF0FBECDBFCF9187
:10139000DF910F910895DF93CF9300D000D00F928B
:1013A000CDB7DEB79C838B838B819C819A838983A5
:1013B00080918B00853009F076C080918E0081503D
:1013C00080938E0080918E00882381F480918C0020
:1013D0008C3019F480E18D8302C08CE08D838D8187
:1013E00080938C0080918D0080938E0080918C0082
:1013F0008C3099F480918E00843078F0E981FA8104
:1014000081E0808389819A81FC01319610828981F3
:101410009A81FC013296108253C080918C008C30EE
:10142000A1F480918E00843080F4E981FA8181E01A
:10143000808389819A81FC01319681E08083898152
:101440009A81FC01329610823BC080918C008031E1
:1014500099F480918E00843078F0E981FA811082CD
:1014600089819A81FC013196108289819A81FC01DF
:10147000329681E0808324C080918C00803101F518
:1014800080918E008430E0F4E981FA8110828981B4
:101490009A81FC01319681E0808389819A81FC01E7
:1014A000329610820DC0E981FA81108289819A8179
:1014B000FC013196108289819A81FC01329610825A
:1014C0000F900F900F900F900F90CF91DF91089594
:1014D000DF93CF9300D00F92CDB7DEB79B838A8383
:1014E00089EC9E012F5F3F4FB9010E94B80088230D
:1014F00009F07AC089818130F1F48091D800882385
:10150000D1F48091D7008823B1F480918B0085308D
:1015100021F489E080938B0067C080918D008A352B
:1015200008F062C080918D008F5F80938D0081E014
:101530008093D80059C08981813061F48091D800AE
:10154000813041F48091D700882321F481E0809399
:10155000D7004AC089818823C9F48091D80081309E
:10156000A9F48091D700813089F480919100815055
:1015700080939100809191008823B1F51092D8005A
:101580001092D70085E0809391002EC080918B004F
:10159000893051F58981882339F58091D8008823D5
:1015A00019F58091D7008823F9F480918F009091EC
:1015B000900001979093900080938F0080918F000E
:1015C00090919000009781F48CE080938C0085E0EE
:1015D00080938B0080918D0080938E0082E390E059
:1015E0009093900080938F000F900F900F90CF9169
:1015F000DF910895DF93CF9300D00F92CDB7DEB780
:101600009B838A838BEC9E012F5F3F4FB9010E9421
:10161000B800882309F07AC089818130F1F4809183
:10162000DA008823D1F48091D9008823B1F4809125
:101630008B00853021F489E080938B0067C0809116
:101640008D00853108F462C080918D0081508093B7
:101650008D0081E08093DA0059C08981813061F486
:101660008091DA00813041F48091D900882321F4FF
:1016700081E08093D9004AC089818823C9F4809190
:10168000DA008130A9F48091D900813089F4809109
:101690009400815080939400809194008823B1F548
:1016A0001092DA001092D90085E0809394002EC049
:1016B00080918B00893051F58981882339F580919B
:1016C000DA00882319F58091D9008823F9F48091F4
:1016D00092009091930001979093930080939200D1
:1016E0008091920090919300009781F48CE0809318
:1016F0008C0085E080938B0080918D0080938E001C
:1017000082E390E090939300809392000F900F906B
:101710000F90CF91DF910895DF93CF9300D000D049
:101720000F92CDB7DEB79D838C838C819D819B8387
:101730008A8380918B00853021F480918E0089838B
:1017400003C080918D008983EA81FB8180818C3088
:10175000C1F48BE06DE00E941A0389819AE0692F41
:101760000E94510C892F982F8CE0692F0E9424022F
:101770008CE06EE00E941A03EA81FB818BE080839B
:1017800016C08CE06DE00E941A0389819AE0692FEF
:101790000E94510C982F8BE0692F0E9424028BE04D
:1017A0006EE00E941A03EA81FB818CE080830F9037
:1017B0000F900F900F900F90CF91DF910895DF93CE
:1017C000CF9300D000D0CDB7DEB79C838B838B81C5
:1017D0009C819A838983E981FA8190818091DB00E1
:1017E000981761F0E981FA8190818EE1692F0E945A
:1017F000C803E981FA8180818093DB000F900F900C
:101800000F900F90CF91DF910895DF93CF9300D089
:1018100000D0CDB7DEB79C838B838B819C819A836C
:101820008983E981FA8190818091DC00981761F0C9
:10183000E981FA8190818FE1692F0E94C803E981D3
:10184000FA8180818093DC000F900F900F900F90B1
:10185000CF91DF910895DF93CF9300D000D0CDB723
:10186000DEB79C838B838B819C819A838983E981FA
:10187000FA8190818091DD00981761F0E981FA8109
:10188000908180E2692F0E94C803E981FA818081FA
:101890008093DD000F900F900F900F90CF91DF910C
:1018A0000895991B79E004C0991F961708F0961BBC
:1018B000881F7A95C9F78095089597FB092E07260A
:1018C0000AD077FD04D02ED006D000201AF47095EF
:1018D00061957F4F0895F6F7909581959F4F0895F4
:1018E000A1E21A2EAA1BBB1BFD010DC0AA1FBB1F24
:1018F000EE1FFF1FA217B307E407F50720F0A21B96
:10190000B30BE40BF50B661F771F881F991F1A9402
:1019100069F760957095809590959B01AC01BD012C
:10192000CF010895AA1BBB1B51E107C0AA1FBB1F13
:10193000A617B70710F0A61BB70B881F991F5A955B
:10194000A9F780959095BC01CD010895F894FFCF3B
:101950000301000003060003020002040004000566
:10196000000600070103010200040005000600074D
:101970000103010103020202070303050C1E1E32CC
:08198000000532000500000023
:00000001FF
